{
  "contractName": "KryptoBird",
  "abi": [
    {
      "inputs": [],
      "stateMutability": "nonpayable",
      "type": "constructor"
    },
    {
      "anonymous": false,
      "inputs": [
        {
          "indexed": true,
          "internalType": "address",
          "name": "from",
          "type": "address"
        },
        {
          "indexed": true,
          "internalType": "address",
          "name": "to",
          "type": "address"
        },
        {
          "indexed": true,
          "internalType": "uint256",
          "name": "tokenId",
          "type": "uint256"
        }
      ],
      "name": "Tranfer",
      "type": "event"
    },
    {
      "inputs": [
        {
          "internalType": "address",
          "name": "_owner",
          "type": "address"
        }
      ],
      "name": "balanceOf",
      "outputs": [
        {
          "internalType": "uint256",
          "name": "",
          "type": "uint256"
        }
      ],
      "stateMutability": "view",
      "type": "function",
      "constant": true
    },
    {
      "inputs": [
        {
          "internalType": "uint256",
          "name": "",
          "type": "uint256"
        }
      ],
      "name": "kryptoBirdz",
      "outputs": [
        {
          "internalType": "string",
          "name": "",
          "type": "string"
        }
      ],
      "stateMutability": "view",
      "type": "function",
      "constant": true
    },
    {
      "inputs": [],
      "name": "name",
      "outputs": [
        {
          "internalType": "string",
          "name": "",
          "type": "string"
        }
      ],
      "stateMutability": "view",
      "type": "function",
      "constant": true
    },
    {
      "inputs": [
        {
          "internalType": "uint256",
          "name": "_tokenId",
          "type": "uint256"
        }
      ],
      "name": "ownerOf",
      "outputs": [
        {
          "internalType": "address",
          "name": "",
          "type": "address"
        }
      ],
      "stateMutability": "view",
      "type": "function",
      "constant": true
    },
    {
      "inputs": [],
      "name": "symbol",
      "outputs": [
        {
          "internalType": "string",
          "name": "",
          "type": "string"
        }
      ],
      "stateMutability": "view",
      "type": "function",
      "constant": true
    },
    {
      "inputs": [
        {
          "internalType": "uint256",
          "name": "index",
          "type": "uint256"
        }
      ],
      "name": "tokenByIndex",
      "outputs": [
        {
          "internalType": "uint256",
          "name": "",
          "type": "uint256"
        }
      ],
      "stateMutability": "view",
      "type": "function",
      "constant": true
    },
    {
      "inputs": [
        {
          "internalType": "address",
          "name": "owner",
          "type": "address"
        },
        {
          "internalType": "uint256",
          "name": "index",
          "type": "uint256"
        }
      ],
      "name": "tokenOfOwnerByIndex",
      "outputs": [
        {
          "internalType": "uint256",
          "name": "",
          "type": "uint256"
        }
      ],
      "stateMutability": "view",
      "type": "function",
      "constant": true
    },
    {
      "inputs": [],
      "name": "totalSupply",
      "outputs": [
        {
          "internalType": "uint256",
          "name": "",
          "type": "uint256"
        }
      ],
      "stateMutability": "view",
      "type": "function",
      "constant": true
    },
    {
      "inputs": [
        {
          "internalType": "string",
          "name": "_kryptoBird",
          "type": "string"
        }
      ],
      "name": "mint",
      "outputs": [],
      "stateMutability": "nonpayable",
      "type": "function"
    }
  ],
  "bytecode": "0x60806040523480156200001157600080fd5b506040518060400160405280600a81526020017f4b727970746f42697264000000000000000000000000000000000000000000008152506040518060400160405280600681526020017f4b424952445a00000000000000000000000000000000000000000000000000008152508181816000908051906020019062000098929190620000bc565b508060019080519060200190620000b1929190620000bc565b5050505050620001d1565b828054620000ca906200019b565b90600052602060002090601f016020900481019282620000ee57600085556200013a565b82601f106200010957805160ff19168380011785556200013a565b828001600101855582156200013a579182015b82811115620001395782518255916020019190600101906200011c565b5b5090506200014991906200014d565b5090565b5b80821115620001685760008160009055506001016200014e565b5090565b7f4e487b7100000000000000000000000000000000000000000000000000000000600052602260045260246000fd5b60006002820490506001821680620001b457607f821691505b60208210811415620001cb57620001ca6200016c565b5b50919050565b6113e380620001e16000396000f3fe608060405234801561001057600080fd5b50600436106100935760003560e01c80636352211e116100665780636352211e1461013457806370a082311461016457806393ab6e561461019457806395d89b41146101c4578063d85d3d27146101e257610093565b806306fdde031461009857806318160ddd146100b65780632f745c59146100d45780634f6ccce714610104575b600080fd5b6100a06101fe565b6040516100ad9190610c07565b60405180910390f35b6100be610290565b6040516100cb9190610c42565b60405180910390f35b6100ee60048036038101906100e99190610cfb565b61029d565b6040516100fb9190610c42565b60405180910390f35b61011e60048036038101906101199190610d3b565b61034d565b60405161012b9190610c42565b60405180910390f35b61014e60048036038101906101499190610d3b565b6103be565b60405161015b9190610d77565b60405180910390f35b61017e60048036038101906101799190610d92565b610470565b60405161018b9190610c42565b60405180910390f35b6101ae60048036038101906101a99190610d3b565b610528565b6040516101bb9190610c07565b60405180910390f35b6101cc6105d4565b6040516101d99190610c07565b60405180910390f35b6101fc60048036038101906101f79190610ef4565b610666565b005b60606000805461020d90610f6c565b80601f016020809104026020016040519081016040528092919081815260200182805461023990610f6c565b80156102865780601f1061025b57610100808354040283529160200191610286565b820191906000526020600020905b81548152906001019060200180831161026957829003601f168201915b5050505050905090565b6000600480549050905090565b60006102a883610470565b82106102e9576040517f08c379a00000000000000000000000000000000000000000000000000000000081526004016102e090610fea565b60405180910390fd5b600660008473ffffffffffffffffffffffffffffffffffffffff1673ffffffffffffffffffffffffffffffffffffffff168152602001908152602001600020828154811061033a5761033961100a565b5b9060005260206000200154905092915050565b6000610357610290565b8210610398576040517f08c379a000000000000000000000000000000000000000000000000000000000815260040161038f90611085565b60405180910390fd5b600482815481106103ac576103ab61100a565b5b90600052602060002001549050919050565b6000806002600084815260200190815260200160002060009054906101000a900473ffffffffffffffffffffffffffffffffffffffff169050600073ffffffffffffffffffffffffffffffffffffffff168173ffffffffffffffffffffffffffffffffffffffff161415610467576040517f08c379a000000000000000000000000000000000000000000000000000000000815260040161045e906110f1565b60405180910390fd5b80915050919050565b60008073ffffffffffffffffffffffffffffffffffffffff168273ffffffffffffffffffffffffffffffffffffffff1614156104e1576040517f08c379a00000000000000000000000000000000000000000000000000000000081526004016104d8906110f1565b60405180910390fd5b600360008373ffffffffffffffffffffffffffffffffffffffff1673ffffffffffffffffffffffffffffffffffffffff168152602001908152602001600020549050919050565b6008818154811061053857600080fd5b90600052602060002001600091509050805461055390610f6c565b80601f016020809104026020016040519081016040528092919081815260200182805461057f90610f6c565b80156105cc5780601f106105a1576101008083540402835291602001916105cc565b820191906000526020600020905b8154815290600101906020018083116105af57829003601f168201915b505050505081565b6060600180546105e390610f6c565b80601f016020809104026020016040519081016040528092919081815260200182805461060f90610f6c565b801561065c5780601f106106315761010080835404028352916020019161065c565b820191906000526020600020905b81548152906001019060200180831161063f57829003601f168201915b5050505050905090565b600981604051610676919061114d565b908152602001604051809103902060009054906101000a900460ff16156106d2576040517f08c379a00000000000000000000000000000000000000000000000000000000081526004016106c9906111d6565b60405180910390fd5b60088190806001815401808255809150506001900390600052602060002001600090919091909150908051906020019061070d929190610acb565b50600060016008805490506107229190611225565b905061072e3382610769565b6001600983604051610740919061114d565b908152602001604051809103902060006101000a81548160ff0219169083151502179055505050565b610773828261078a565b61077c8161094c565b6107868282610995565b5050565b600073ffffffffffffffffffffffffffffffffffffffff168273ffffffffffffffffffffffffffffffffffffffff1614156107fa576040517f08c379a00000000000000000000000000000000000000000000000000000000081526004016107f1906112cb565b60405180910390fd5b61080381610a59565b15610843576040517f08c379a000000000000000000000000000000000000000000000000000000000815260040161083a90611337565b60405180910390fd5b816002600083815260200190815260200160002060006101000a81548173ffffffffffffffffffffffffffffffffffffffff021916908373ffffffffffffffffffffffffffffffffffffffff1602179055506001600360008473ffffffffffffffffffffffffffffffffffffffff1673ffffffffffffffffffffffffffffffffffffffff16815260200190815260200160002060008282546108e59190611357565b92505081905550808273ffffffffffffffffffffffffffffffffffffffff16600073ffffffffffffffffffffffffffffffffffffffff167f5225eac2a7facfbeb099c00a4cc7c457701324f1fd84b84b14033f9e911374a460405160405180910390a45050565b6004805490506005600083815260200190815260200160002081905550600481908060018154018082558091505060019003906000526020600020016000909190919091505550565b600660008373ffffffffffffffffffffffffffffffffffffffff1673ffffffffffffffffffffffffffffffffffffffff168152602001908152602001600020805490506007600083815260200190815260200160002081905550600660008373ffffffffffffffffffffffffffffffffffffffff1673ffffffffffffffffffffffffffffffffffffffff1681526020019081526020016000208190806001815401808255809150506001900390600052602060002001600090919091909150555050565b6000806002600084815260200190815260200160002060009054906101000a900473ffffffffffffffffffffffffffffffffffffffff169050600073ffffffffffffffffffffffffffffffffffffffff168173ffffffffffffffffffffffffffffffffffffffff161415915050919050565b828054610ad790610f6c565b90600052602060002090601f016020900481019282610af95760008555610b40565b82601f10610b1257805160ff1916838001178555610b40565b82800160010185558215610b40579182015b82811115610b3f578251825591602001919060010190610b24565b5b509050610b4d9190610b51565b5090565b5b80821115610b6a576000816000905550600101610b52565b5090565b600081519050919050565b600082825260208201905092915050565b60005b83811015610ba8578082015181840152602081019050610b8d565b83811115610bb7576000848401525b50505050565b6000601f19601f8301169050919050565b6000610bd982610b6e565b610be38185610b79565b9350610bf3818560208601610b8a565b610bfc81610bbd565b840191505092915050565b60006020820190508181036000830152610c218184610bce565b905092915050565b6000819050919050565b610c3c81610c29565b82525050565b6000602082019050610c576000830184610c33565b92915050565b6000604051905090565b600080fd5b600080fd5b600073ffffffffffffffffffffffffffffffffffffffff82169050919050565b6000610c9c82610c71565b9050919050565b610cac81610c91565b8114610cb757600080fd5b50565b600081359050610cc981610ca3565b92915050565b610cd881610c29565b8114610ce357600080fd5b50565b600081359050610cf581610ccf565b92915050565b60008060408385031215610d1257610d11610c67565b5b6000610d2085828601610cba565b9250506020610d3185828601610ce6565b9150509250929050565b600060208284031215610d5157610d50610c67565b5b6000610d5f84828501610ce6565b91505092915050565b610d7181610c91565b82525050565b6000602082019050610d8c6000830184610d68565b92915050565b600060208284031215610da857610da7610c67565b5b6000610db684828501610cba565b91505092915050565b600080fd5b600080fd5b7f4e487b7100000000000000000000000000000000000000000000000000000000600052604160045260246000fd5b610e0182610bbd565b810181811067ffffffffffffffff82111715610e2057610e1f610dc9565b5b80604052505050565b6000610e33610c5d565b9050610e3f8282610df8565b919050565b600067ffffffffffffffff821115610e5f57610e5e610dc9565b5b610e6882610bbd565b9050602081019050919050565b82818337600083830152505050565b6000610e97610e9284610e44565b610e29565b905082815260208101848484011115610eb357610eb2610dc4565b5b610ebe848285610e75565b509392505050565b600082601f830112610edb57610eda610dbf565b5b8135610eeb848260208601610e84565b91505092915050565b600060208284031215610f0a57610f09610c67565b5b600082013567ffffffffffffffff811115610f2857610f27610c6c565b5b610f3484828501610ec6565b91505092915050565b7f4e487b7100000000000000000000000000000000000000000000000000000000600052602260045260246000fd5b60006002820490506001821680610f8457607f821691505b60208210811415610f9857610f97610f3d565b5b50919050565b7f6f776e657220696e646578206973206f7574206f6620626f756e647300000000600082015250565b6000610fd4601c83610b79565b9150610fdf82610f9e565b602082019050919050565b6000602082019050818103600083015261100381610fc7565b9050919050565b7f4e487b7100000000000000000000000000000000000000000000000000000000600052603260045260246000fd5b7f676c6f62616c20696e646578206973206f7574206f6620626f756e6473000000600082015250565b600061106f601d83610b79565b915061107a82611039565b602082019050919050565b6000602082019050818103600083015261109e81611062565b9050919050565b7f746f6b656e20646f65736e74206973206e6f6e2d6578697374656e7400000000600082015250565b60006110db601c83610b79565b91506110e6826110a5565b602082019050919050565b6000602082019050818103600083015261110a816110ce565b9050919050565b600081905092915050565b600061112782610b6e565b6111318185611111565b9350611141818560208601610b8a565b80840191505092915050565b6000611159828461111c565b915081905092915050565b7f4572726f72202d206b727970746f4269726420616c726561647920657869737460008201527f7300000000000000000000000000000000000000000000000000000000000000602082015250565b60006111c0602183610b79565b91506111cb82611164565b604082019050919050565b600060208201905081810360008301526111ef816111b3565b9050919050565b7f4e487b7100000000000000000000000000000000000000000000000000000000600052601160045260246000fd5b600061123082610c29565b915061123b83610c29565b92508282101561124e5761124d6111f6565b5b828203905092915050565b7f4552433732313a206d696e74696e6720746f20746865207a65726f206164647260008201527f6573730000000000000000000000000000000000000000000000000000000000602082015250565b60006112b5602383610b79565b91506112c082611259565b604082019050919050565b600060208201905081810360008301526112e4816112a8565b9050919050565b7f4552433732313a20746f6b656e20616c72616479206d696e7465640000000000600082015250565b6000611321601b83610b79565b915061132c826112eb565b602082019050919050565b6000602082019050818103600083015261135081611314565b9050919050565b600061136282610c29565b915061136d83610c29565b9250827fffffffffffffffffffffffffffffffffffffffffffffffffffffffffffffffff038211156113a2576113a16111f6565b5b82820190509291505056fea2646970667358221220b4dad568fec69c5b689c86680ef4236bb2d2833ea2259ef14dfc4b3594d6fb0c64736f6c634300080b0033",
  "immutableReferences": {},
  "source": "// SPDX-License-Identifier: MIT\npragma solidity ^0.8.0;\n\nimport './ERC721Connector.sol';\n\ncontract KryptoBird is ERC721Connector {\n    \nstring[] public kryptoBirdz;\n\nmapping(string => bool) _kryptoBirdzExists; \n\nfunction mint(string memory _kryptoBird) public { //minting function can be public\n\n    require(!_kryptoBirdzExists[_kryptoBird],'Error - kryptoBird already exists');\n    // push birz in array to keep track\n    // uint _id = kryptoBirdzirdz.push(_kryptoBird) **deprecated .push no longer return the length but a reference to add el\n    kryptoBirdz.push(_kryptoBird);\n    uint _id = kryptoBirdz.length - 1;\n\n    _mint(msg.sender, _id);\n\n    _kryptoBirdzExists[_kryptoBird] = true;\n}\n    constructor() ERC721Connector('KryptoBird', 'KBIRDZ') {\n\n    }\n\n\n}",
  "sourcePath": "/Users/carloecheverri/blockchain/nft-marketplace-starter-kit/src/contracts/KryptoBirdz.sol",
  "compiler": {
    "name": "solc",
    "version": "0.8.11+commit.d7f03943.Emscripten.clang"
  },
  "schemaVersion": "3.4.4",
  "updatedAt": "2022-02-16T04:06:38.779Z",
  "networkType": "ethereum",
  "devdoc": {
    "kind": "dev",
    "methods": {},
    "version": 1
  },
  "userdoc": {
    "kind": "user",
    "methods": {},
    "version": 1
  }
}